{
  "contractName": "MCT",
  "abi": [
    {
      "inputs": [],
      "stateMutability": "nonpayable",
      "type": "constructor"
    },
    {
      "anonymous": false,
      "inputs": [
        {
          "indexed": true,
          "internalType": "address",
          "name": "owner",
          "type": "address"
        },
        {
          "indexed": true,
          "internalType": "address",
          "name": "approved",
          "type": "address"
        },
        {
          "indexed": true,
          "internalType": "uint256",
          "name": "tokenId",
          "type": "uint256"
        }
      ],
      "name": "Approval",
      "type": "event"
    },
    {
      "anonymous": false,
      "inputs": [
        {
          "indexed": true,
          "internalType": "address",
          "name": "owner",
          "type": "address"
        },
        {
          "indexed": true,
          "internalType": "address",
          "name": "operator",
          "type": "address"
        },
        {
          "indexed": false,
          "internalType": "bool",
          "name": "approved",
          "type": "bool"
        }
      ],
      "name": "ApprovalForAll",
      "type": "event"
    },
    {
      "anonymous": false,
      "inputs": [
        {
          "indexed": false,
          "internalType": "string",
          "name": "_url",
          "type": "string"
        }
      ],
      "name": "CallYourTokens",
      "type": "event"
    },
    {
      "anonymous": false,
      "inputs": [],
      "name": "CallYourTokens_Finish",
      "type": "event"
    },
    {
      "anonymous": false,
      "inputs": [],
      "name": "CallYourTokens_Start",
      "type": "event"
    },
    {
      "anonymous": false,
      "inputs": [],
      "name": "MCTInit",
      "type": "event"
    },
    {
      "anonymous": false,
      "inputs": [],
      "name": "NewGen",
      "type": "event"
    },
    {
      "anonymous": false,
      "inputs": [
        {
          "indexed": false,
          "internalType": "uint256",
          "name": "_id",
          "type": "uint256"
        }
      ],
      "name": "SoldCard",
      "type": "event"
    },
    {
      "anonymous": false,
      "inputs": [
        {
          "indexed": true,
          "internalType": "address",
          "name": "from",
          "type": "address"
        },
        {
          "indexed": true,
          "internalType": "address",
          "name": "to",
          "type": "address"
        },
        {
          "indexed": true,
          "internalType": "uint256",
          "name": "tokenId",
          "type": "uint256"
        }
      ],
      "name": "Transfer",
      "type": "event"
    },
    {
      "inputs": [],
      "name": "admin",
      "outputs": [
        {
          "internalType": "address",
          "name": "",
          "type": "address"
        }
      ],
      "stateMutability": "view",
      "type": "function"
    },
    {
      "inputs": [
        {
          "internalType": "address",
          "name": "to",
          "type": "address"
        },
        {
          "internalType": "uint256",
          "name": "tokenId",
          "type": "uint256"
        }
      ],
      "name": "approve",
      "outputs": [],
      "stateMutability": "nonpayable",
      "type": "function"
    },
    {
      "inputs": [
        {
          "internalType": "address",
          "name": "owner",
          "type": "address"
        }
      ],
      "name": "balanceOf",
      "outputs": [
        {
          "internalType": "uint256",
          "name": "",
          "type": "uint256"
        }
      ],
      "stateMutability": "view",
      "type": "function"
    },
    {
      "inputs": [
        {
          "internalType": "uint256",
          "name": "tokenId",
          "type": "uint256"
        }
      ],
      "name": "getApproved",
      "outputs": [
        {
          "internalType": "address",
          "name": "",
          "type": "address"
        }
      ],
      "stateMutability": "view",
      "type": "function"
    },
    {
      "inputs": [
        {
          "internalType": "address",
          "name": "owner",
          "type": "address"
        },
        {
          "internalType": "address",
          "name": "operator",
          "type": "address"
        }
      ],
      "name": "isApprovedForAll",
      "outputs": [
        {
          "internalType": "bool",
          "name": "",
          "type": "bool"
        }
      ],
      "stateMutability": "view",
      "type": "function"
    },
    {
      "inputs": [],
      "name": "name",
      "outputs": [
        {
          "internalType": "string",
          "name": "",
          "type": "string"
        }
      ],
      "stateMutability": "view",
      "type": "function"
    },
    {
      "inputs": [
        {
          "internalType": "uint256",
          "name": "tokenId",
          "type": "uint256"
        }
      ],
      "name": "ownerOf",
      "outputs": [
        {
          "internalType": "address",
          "name": "",
          "type": "address"
        }
      ],
      "stateMutability": "view",
      "type": "function"
    },
    {
      "inputs": [
        {
          "internalType": "address",
          "name": "from",
          "type": "address"
        },
        {
          "internalType": "address",
          "name": "to",
          "type": "address"
        },
        {
          "internalType": "uint256",
          "name": "tokenId",
          "type": "uint256"
        }
      ],
      "name": "safeTransferFrom",
      "outputs": [],
      "stateMutability": "nonpayable",
      "type": "function"
    },
    {
      "inputs": [
        {
          "internalType": "address",
          "name": "from",
          "type": "address"
        },
        {
          "internalType": "address",
          "name": "to",
          "type": "address"
        },
        {
          "internalType": "uint256",
          "name": "tokenId",
          "type": "uint256"
        },
        {
          "internalType": "bytes",
          "name": "_data",
          "type": "bytes"
        }
      ],
      "name": "safeTransferFrom",
      "outputs": [],
      "stateMutability": "nonpayable",
      "type": "function"
    },
    {
      "inputs": [
        {
          "internalType": "address",
          "name": "operator",
          "type": "address"
        },
        {
          "internalType": "bool",
          "name": "approved",
          "type": "bool"
        }
      ],
      "name": "setApprovalForAll",
      "outputs": [],
      "stateMutability": "nonpayable",
      "type": "function"
    },
    {
      "inputs": [
        {
          "internalType": "bytes4",
          "name": "interfaceId",
          "type": "bytes4"
        }
      ],
      "name": "supportsInterface",
      "outputs": [
        {
          "internalType": "bool",
          "name": "",
          "type": "bool"
        }
      ],
      "stateMutability": "view",
      "type": "function"
    },
    {
      "inputs": [],
      "name": "symbol",
      "outputs": [
        {
          "internalType": "string",
          "name": "",
          "type": "string"
        }
      ],
      "stateMutability": "view",
      "type": "function"
    },
    {
      "inputs": [
        {
          "internalType": "uint256",
          "name": "tokenId",
          "type": "uint256"
        }
      ],
      "name": "tokenURI",
      "outputs": [
        {
          "internalType": "string",
          "name": "",
          "type": "string"
        }
      ],
      "stateMutability": "view",
      "type": "function"
    },
    {
      "inputs": [
        {
          "internalType": "address",
          "name": "from",
          "type": "address"
        },
        {
          "internalType": "address",
          "name": "to",
          "type": "address"
        },
        {
          "internalType": "uint256",
          "name": "tokenId",
          "type": "uint256"
        }
      ],
      "name": "transferFrom",
      "outputs": [],
      "stateMutability": "nonpayable",
      "type": "function"
    },
    {
      "inputs": [
        {
          "internalType": "string",
          "name": "_url",
          "type": "string"
        }
      ],
      "name": "addCard",
      "outputs": [],
      "stateMutability": "nonpayable",
      "type": "function"
    },
    {
      "inputs": [],
      "name": "startNewGen",
      "outputs": [],
      "stateMutability": "nonpayable",
      "type": "function"
    },
    {
      "inputs": [
        {
          "internalType": "address",
          "name": "_address",
          "type": "address"
        }
      ],
      "name": "callOwnedCards",
      "outputs": [],
      "stateMutability": "nonpayable",
      "type": "function"
    },
    {
      "inputs": [
        {
          "internalType": "uint256",
          "name": "_id",
          "type": "uint256"
        }
      ],
      "name": "searchCard",
      "outputs": [
        {
          "components": [
            {
              "internalType": "uint256",
              "name": "id",
              "type": "uint256"
            },
            {
              "internalType": "address",
              "name": "owner",
              "type": "address"
            },
            {
              "internalType": "string",
              "name": "url",
              "type": "string"
            }
          ],
          "internalType": "struct MCT.Card",
          "name": "",
          "type": "tuple"
        }
      ],
      "stateMutability": "view",
      "type": "function"
    },
    {
      "inputs": [
        {
          "internalType": "address",
          "name": "_to",
          "type": "address"
        }
      ],
      "name": "gatcha",
      "outputs": [],
      "stateMutability": "payable",
      "type": "function"
    },
    {
      "inputs": [
        {
          "internalType": "address",
          "name": "_from",
          "type": "address"
        },
        {
          "internalType": "address",
          "name": "_to",
          "type": "address"
        },
        {
          "internalType": "uint256",
          "name": "_id",
          "type": "uint256"
        }
      ],
      "name": "TransferCard",
      "outputs": [],
      "stateMutability": "nonpayable",
      "type": "function"
    },
    {
      "inputs": [],
      "name": "getRandId",
      "outputs": [
        {
          "internalType": "uint256",
          "name": "",
          "type": "uint256"
        }
      ],
      "stateMutability": "pure",
      "type": "function"
    }
  ],
  "bytecode": "0x60806040523480156200001157600080fd5b506040518060400160405280600381526020017f4d435400000000000000000000000000000000000000000000000000000000008152506040518060400160405280600481526020017f436172640000000000000000000000000000000000000000000000000000000081525081600090805190602001906200009692919062000134565b508060019080519060200190620000af92919062000134565b50505033600c60006101000a81548173ffffffffffffffffffffffffffffffffffffffff021916908373ffffffffffffffffffffffffffffffffffffffff1602179055506000600a819055507e3fcd2e9bca55c811fc8dd9f0017383f2a5cf2fec6b6855c918f7d3bbfb32e860405160405180910390a1600060088190555062000249565b8280546200014290620001e4565b90600052602060002090601f016020900481019282620001665760008555620001b2565b82601f106200018157805160ff1916838001178555620001b2565b82800160010185558215620001b2579182015b82811115620001b157825182559160200191906001019062000194565b5b509050620001c19190620001c5565b5090565b5b80821115620001e0576000816000905550600101620001c6565b5090565b60006002820490506001821680620001fd57607f821691505b602082108114156200021457620002136200021a565b5b50919050565b7f4e487b7100000000000000000000000000000000000000000000000000000000600052602260045260246000fd5b61371f80620002596000396000f3fe60806040526004361061012a5760003560e01c806395d89b41116100ab578063c87b56dd1161006f578063c87b56dd146103ec578063cffc1d9714610429578063d9d8fc1914610445578063e3fd67c01461046e578063e985e9c514610499578063f851a440146104d65761012a565b806395d89b41146103095780639dc63a7814610334578063a22cb4651461035d578063b88d4fde14610386578063c6b21c33146103af5761012a565b806342842e0e116100f257806342842e0e146102265780636352211e1461024f57806370a082311461028c5780637fb22937146102c957806385d7dddf146102e05761012a565b806301ffc9a71461012f57806306fdde031461016c578063081812fc14610197578063095ea7b3146101d457806323b872dd146101fd575b600080fd5b34801561013b57600080fd5b5061015660048036038101906101519190612738565b610501565b6040516101639190613024565b60405180910390f35b34801561017857600080fd5b506101816105e3565b60405161018e919061303f565b60405180910390f35b3480156101a357600080fd5b506101be60048036038101906101b991906127cb565b610675565b6040516101cb9190612fbd565b60405180910390f35b3480156101e057600080fd5b506101fb60048036038101906101f691906126fc565b6106fa565b005b34801561020957600080fd5b50610224600480360381019061021f91906125f6565b610812565b005b34801561023257600080fd5b5061024d600480360381019061024891906125f6565b610872565b005b34801561025b57600080fd5b50610276600480360381019061027191906127cb565b610892565b6040516102839190612fbd565b60405180910390f35b34801561029857600080fd5b506102b360048036038101906102ae9190612591565b610944565b6040516102c091906132a3565b60405180910390f35b3480156102d557600080fd5b506102de6109fc565b005b3480156102ec57600080fd5b5061030760048036038101906103029190612591565b610a6c565b005b34801561031557600080fd5b5061031e610c37565b60405161032b919061303f565b60405180910390f35b34801561034057600080fd5b5061035b6004803603810190610356919061278a565b610cc9565b005b34801561036957600080fd5b50610384600480360381019061037f91906126c0565b610ddd565b005b34801561039257600080fd5b506103ad60048036038101906103a89190612645565b610f5e565b005b3480156103bb57600080fd5b506103d660048036038101906103d191906127cb565b610fc0565b6040516103e39190613281565b60405180910390f35b3480156103f857600080fd5b50610413600480360381019061040e91906127cb565b611040565b604051610420919061303f565b60405180910390f35b610443600480360381019061043e9190612591565b611192565b005b34801561045157600080fd5b5061046c600480360381019061046791906125f6565b6112aa565b005b34801561047a57600080fd5b50610483611390565b60405161049091906132a3565b60405180910390f35b3480156104a557600080fd5b506104c060048036038101906104bb91906125ba565b611395565b6040516104cd9190613024565b60405180910390f35b3480156104e257600080fd5b506104eb611429565b6040516104f89190612fbd565b60405180910390f35b60007f80ac58cd000000000000000000000000000000000000000000000000000000007bffffffffffffffffffffffffffffffffffffffffffffffffffffffff1916827bffffffffffffffffffffffffffffffffffffffffffffffffffffffff191614806105cc57507f5b5e139f000000000000000000000000000000000000000000000000000000007bffffffffffffffffffffffffffffffffffffffffffffffffffffffff1916827bffffffffffffffffffffffffffffffffffffffffffffffffffffffff1916145b806105dc57506105db8261144f565b5b9050919050565b6060600080546105f290613514565b80601f016020809104026020016040519081016040528092919081815260200182805461061e90613514565b801561066b5780601f106106405761010080835404028352916020019161066b565b820191906000526020600020905b81548152906001019060200180831161064e57829003601f168201915b5050505050905090565b6000610680826114b9565b6106bf576040517f08c379a00000000000000000000000000000000000000000000000000000000081526004016106b6906131e1565b60405180910390fd5b6004600083815260200190815260200160002060009054906101000a900473ffffffffffffffffffffffffffffffffffffffff169050919050565b600061070582610892565b90508073ffffffffffffffffffffffffffffffffffffffff168373ffffffffffffffffffffffffffffffffffffffff161415610776576040517f08c379a000000000000000000000000000000000000000000000000000000000815260040161076d90613241565b60405180910390fd5b8073ffffffffffffffffffffffffffffffffffffffff16610795611525565b73ffffffffffffffffffffffffffffffffffffffff1614806107c457506107c3816107be611525565b611395565b5b610803576040517f08c379a00000000000000000000000000000000000000000000000000000000081526004016107fa90613121565b60405180910390fd5b61080d838361152d565b505050565b61082361081d611525565b826115e6565b610862576040517f08c379a000000000000000000000000000000000000000000000000000000000815260040161085990613261565b60405180910390fd5b61086d8383836116c4565b505050565b61088d83838360405180602001604052806000815250610f5e565b505050565b6000806002600084815260200190815260200160002060009054906101000a900473ffffffffffffffffffffffffffffffffffffffff169050600073ffffffffffffffffffffffffffffffffffffffff168173ffffffffffffffffffffffffffffffffffffffff16141561093b576040517f08c379a000000000000000000000000000000000000000000000000000000000815260040161093290613161565b60405180910390fd5b80915050919050565b60008073ffffffffffffffffffffffffffffffffffffffff168273ffffffffffffffffffffffffffffffffffffffff1614156109b5576040517f08c379a00000000000000000000000000000000000000000000000000000000081526004016109ac90613141565b60405180910390fd5b600360008373ffffffffffffffffffffffffffffffffffffffff1673ffffffffffffffffffffffffffffffffffffffff168152602001908152602001600020549050919050565b600960009080600181540180825580915050600190039060005260206000200160009091909190915055600a6000815480929190610a3990613546565b91905055507f1e996c6ed364144cb61282b3c033b12c18296cb337faa7cefcea86ab0da0445060405160405180910390a1565b8073ffffffffffffffffffffffffffffffffffffffff163373ffffffffffffffffffffffffffffffffffffffff1614610aa457600080fd5b7f59a9660c0bc9ae141164d7a5a153e665f8c28164b30569f8126ce186c2bc3b3160405160405180910390a16000600b60008373ffffffffffffffffffffffffffffffffffffffff1673ffffffffffffffffffffffffffffffffffffffff168152602001908152602001600020805480602002602001604051908101604052809291908181526020018280548015610b5b57602002820191906000526020600020905b815481526020019060010190808311610b47575b5050505050905060005b8151811015610c06576000610bb9838381518110610bac577f4e487b7100000000000000000000000000000000000000000000000000000000600052603260045260246000fd5b6020026020010151611040565b90507f79645e461959187010be353d7874ce9af7c1a066bfe78122a0fa04a37edad6bb81604051610bea919061303f565b60405180910390a1508080610bfe90613546565b915050610b65565b507f9afe73aa4cd948ba3294b8e31e06079a58fa95aa7908e62b0060c51c0740628760405160405180910390a15050565b606060018054610c4690613514565b80601f0160208091040260200160405190810160405280929190818152602001828054610c7290613514565b8015610cbf5780601f10610c9457610100808354040283529160200191610cbf565b820191906000526020600020905b815481529060010190602001808311610ca257829003601f168201915b5050505050905090565b600c60009054906101000a900473ffffffffffffffffffffffffffffffffffffffff1673ffffffffffffffffffffffffffffffffffffffff163373ffffffffffffffffffffffffffffffffffffffff1614610d2357600080fd5b60096001600a54610d34919061342a565b81548110610d6b577f4e487b7100000000000000000000000000000000000000000000000000000000600052603260045260246000fd5b906000526020600020016000815480929190610d8690613546565b91905055506000610d976007611920565b9050610da3600761192e565b610dcf600c60009054906101000a900473ffffffffffffffffffffffffffffffffffffffff1682611944565b610dd98183611952565b5050565b610de5611525565b73ffffffffffffffffffffffffffffffffffffffff168273ffffffffffffffffffffffffffffffffffffffff161415610e53576040517f08c379a0000000000000000000000000000000000000000000000000000000008152600401610e4a906130e1565b60405180910390fd5b8060056000610e60611525565b73ffffffffffffffffffffffffffffffffffffffff1673ffffffffffffffffffffffffffffffffffffffff16815260200190815260200160002060008473ffffffffffffffffffffffffffffffffffffffff1673ffffffffffffffffffffffffffffffffffffffff16815260200190815260200160002060006101000a81548160ff0219169083151502179055508173ffffffffffffffffffffffffffffffffffffffff16610f0d611525565b73ffffffffffffffffffffffffffffffffffffffff167f17307eab39ab6107e8899845ad3d59bd9653f200f220920489ca2b5937696c3183604051610f529190613024565b60405180910390a35050565b610f6f610f69611525565b836115e6565b610fae576040517f08c379a0000000000000000000000000000000000000000000000000000000008152600401610fa590613261565b60405180910390fd5b610fba848484846119c6565b50505050565b610fc861237e565b6000610fd383611040565b90506000610fe084610892565b9050610fea61237e565b8481600001818152505081816020019073ffffffffffffffffffffffffffffffffffffffff16908173ffffffffffffffffffffffffffffffffffffffff1681525050828160400181905250809350505050919050565b606061104b826114b9565b61108a576040517f08c379a0000000000000000000000000000000000000000000000000000000008152600401611081906131c1565b60405180910390fd5b60006006600084815260200190815260200160002080546110aa90613514565b80601f01602080910402602001604051908101604052809291908181526020018280546110d690613514565b80156111235780601f106110f857610100808354040283529160200191611123565b820191906000526020600020905b81548152906001019060200180831161110657829003601f168201915b505050505090506000611134611a22565b905060008151141561114a57819250505061118d565b60008251111561117f578082604051602001611167929190612f99565b6040516020818303038152906040529250505061118d565b61118884611a39565b925050505b919050565b3373ffffffffffffffffffffffffffffffffffffffff168173ffffffffffffffffffffffffffffffffffffffff161480156111ce575060085434145b6111d757600080fd5b60005b6111e2611390565b9050600c60009054906101000a900473ffffffffffffffffffffffffffffffffffffffff1673ffffffffffffffffffffffffffffffffffffffff1661122682610892565b73ffffffffffffffffffffffffffffffffffffffff1614156111da5761126f600c60009054906101000a900473ffffffffffffffffffffffffffffffffffffffff1683836112aa565b7f938328a437ef6ed1cdb4f8cc7636ba7b43751d456f77d77606e3b62146f048408160405161129e91906132a3565b60405180910390a15050565b8273ffffffffffffffffffffffffffffffffffffffff166112ca82610892565b73ffffffffffffffffffffffffffffffffffffffff16148061131f57506112f081610675565b73ffffffffffffffffffffffffffffffffffffffff168273ffffffffffffffffffffffffffffffffffffffff16145b61135e576040517f08c379a000000000000000000000000000000000000000000000000000000000815260040161135590613061565b60405180910390fd5b61137061136a82610892565b82611ae0565b1561138b5761137f8282611d71565b61138a838383610872565b5b505050565b600090565b6000600560008473ffffffffffffffffffffffffffffffffffffffff1673ffffffffffffffffffffffffffffffffffffffff16815260200190815260200160002060008373ffffffffffffffffffffffffffffffffffffffff1673ffffffffffffffffffffffffffffffffffffffff16815260200190815260200160002060009054906101000a900460ff16905092915050565b600c60009054906101000a900473ffffffffffffffffffffffffffffffffffffffff1681565b60007f01ffc9a7000000000000000000000000000000000000000000000000000000007bffffffffffffffffffffffffffffffffffffffffffffffffffffffff1916827bffffffffffffffffffffffffffffffffffffffffffffffffffffffff1916149050919050565b60008073ffffffffffffffffffffffffffffffffffffffff166002600084815260200190815260200160002060009054906101000a900473ffffffffffffffffffffffffffffffffffffffff1673ffffffffffffffffffffffffffffffffffffffff1614159050919050565b600033905090565b816004600083815260200190815260200160002060006101000a81548173ffffffffffffffffffffffffffffffffffffffff021916908373ffffffffffffffffffffffffffffffffffffffff160217905550808273ffffffffffffffffffffffffffffffffffffffff166115a083610892565b73ffffffffffffffffffffffffffffffffffffffff167f8c5be1e5ebec7d5bd14f71427d1e84f3dd0314c0f7b2291e5b200ac8c7c3b92560405160405180910390a45050565b60006115f1826114b9565b611630576040517f08c379a000000000000000000000000000000000000000000000000000000000815260040161162790613101565b60405180910390fd5b600061163b83610892565b90508073ffffffffffffffffffffffffffffffffffffffff168473ffffffffffffffffffffffffffffffffffffffff1614806116aa57508373ffffffffffffffffffffffffffffffffffffffff1661169284610675565b73ffffffffffffffffffffffffffffffffffffffff16145b806116bb57506116ba8185611395565b5b91505092915050565b8273ffffffffffffffffffffffffffffffffffffffff166116e482610892565b73ffffffffffffffffffffffffffffffffffffffff161461173a576040517f08c379a000000000000000000000000000000000000000000000000000000000815260040161173190613201565b60405180910390fd5b600073ffffffffffffffffffffffffffffffffffffffff168273ffffffffffffffffffffffffffffffffffffffff1614156117aa576040517f08c379a00000000000000000000000000000000000000000000000000000000081526004016117a1906130c1565b60405180910390fd5b6117b5838383611ddb565b6117c060008261152d565b6001600360008573ffffffffffffffffffffffffffffffffffffffff1673ffffffffffffffffffffffffffffffffffffffff1681526020019081526020016000206000828254611810919061342a565b925050819055506001600360008473ffffffffffffffffffffffffffffffffffffffff1673ffffffffffffffffffffffffffffffffffffffff168152602001908152602001600020600082825461186791906133a3565b92505081905550816002600083815260200190815260200160002060006101000a81548173ffffffffffffffffffffffffffffffffffffffff021916908373ffffffffffffffffffffffffffffffffffffffff160217905550808273ffffffffffffffffffffffffffffffffffffffff168473ffffffffffffffffffffffffffffffffffffffff167fddf252ad1be2c89b69c2b068fc378daa952ba7f163c4a11628f55a4df523b3ef60405160405180910390a4505050565b600081600001549050919050565b6001816000016000828254019250508190555050565b61194e8282611de0565b5050565b61195b826114b9565b61199a576040517f08c379a000000000000000000000000000000000000000000000000000000000815260040161199190613181565b60405180910390fd5b806006600084815260200190815260200160002090805190602001906119c19291906123b5565b505050565b6119d18484846116c4565b6119dd84848484611dfe565b611a1c576040517f08c379a0000000000000000000000000000000000000000000000000000000008152600401611a1390613081565b60405180910390fd5b50505050565b606060405180602001604052806000815250905090565b6060611a44826114b9565b611a83576040517f08c379a0000000000000000000000000000000000000000000000000000000008152600401611a7a90613221565b60405180910390fd5b6000611a8d611a22565b90506000815111611aad5760405180602001604052806000815250611ad8565b80611ab784611f95565b604051602001611ac8929190612f99565b6040516020818303038152906040525b915050919050565b600080600b60008573ffffffffffffffffffffffffffffffffffffffff1673ffffffffffffffffffffffffffffffffffffffff16815260200190815260200160002080549050905060005b81811015611d645783600b60008773ffffffffffffffffffffffffffffffffffffffff1673ffffffffffffffffffffffffffffffffffffffff1681526020019081526020016000208281548110611bab577f4e487b7100000000000000000000000000000000000000000000000000000000600052603260045260246000fd5b90600052602060002001541415611d5f576000600b60008773ffffffffffffffffffffffffffffffffffffffff1673ffffffffffffffffffffffffffffffffffffffff1681526020019081526020016000208381548110611c35577f4e487b7100000000000000000000000000000000000000000000000000000000600052603260045260246000fd5b9060005260206000200154905080600b60008873ffffffffffffffffffffffffffffffffffffffff1673ffffffffffffffffffffffffffffffffffffffff1681526020019081526020016000208381548110611cba577f4e487b7100000000000000000000000000000000000000000000000000000000600052603260045260246000fd5b9060005260206000200181905550600b60008773ffffffffffffffffffffffffffffffffffffffff1673ffffffffffffffffffffffffffffffffffffffff168152602001908152602001600020805480611d3d577f4e487b7100000000000000000000000000000000000000000000000000000000600052603160045260246000fd5b6001900381819060005260206000200160009055905560019350505050611d6b565b611b2b565b6000925050505b92915050565b600b60008373ffffffffffffffffffffffffffffffffffffffff1673ffffffffffffffffffffffffffffffffffffffff1681526020019081526020016000208190806001815401808255809150506001900390600052602060002001600090919091909150555050565b505050565b611dfa828260405180602001604052806000815250612142565b5050565b6000611e1f8473ffffffffffffffffffffffffffffffffffffffff1661219d565b15611f88578373ffffffffffffffffffffffffffffffffffffffff1663150b7a02611e48611525565b8786866040518563ffffffff1660e01b8152600401611e6a9493929190612fd8565b602060405180830381600087803b158015611e8457600080fd5b505af1925050508015611eb557506040513d601f19601f82011682018060405250810190611eb29190612761565b60015b611f38573d8060008114611ee5576040519150601f19603f3d011682016040523d82523d6000602084013e611eea565b606091505b50600081511415611f30576040517f08c379a0000000000000000000000000000000000000000000000000000000008152600401611f2790613081565b60405180910390fd5b805181602001fd5b63150b7a0260e01b7bffffffffffffffffffffffffffffffffffffffffffffffffffffffff1916817bffffffffffffffffffffffffffffffffffffffffffffffffffffffff191614915050611f8d565b600190505b949350505050565b60606000821415611fdd576040518060400160405280600181526020017f3000000000000000000000000000000000000000000000000000000000000000815250905061213d565b600082905060005b6000821461200f578080611ff890613546565b915050600a8261200891906133f9565b9150611fe5565b60008167ffffffffffffffff811115612051577f4e487b7100000000000000000000000000000000000000000000000000000000600052604160045260246000fd5b6040519080825280601f01601f1916602001820160405280156120835781602001600182028036833780820191505090505b5090505b600085146121365760018261209c919061342a565b9150600a856120ab919061358f565b60306120b791906133a3565b60f81b8183815181106120f3577f4e487b7100000000000000000000000000000000000000000000000000000000600052603260045260246000fd5b60200101907effffffffffffffffffffffffffffffffffffffffffffffffffffffffffffff1916908160001a905350600a8561212f91906133f9565b9450612087565b8093505050505b919050565b61214c83836121b0565b6121596000848484611dfe565b612198576040517f08c379a000000000000000000000000000000000000000000000000000000000815260040161218f90613081565b60405180910390fd5b505050565b600080823b905060008111915050919050565b600073ffffffffffffffffffffffffffffffffffffffff168273ffffffffffffffffffffffffffffffffffffffff161415612220576040517f08c379a0000000000000000000000000000000000000000000000000000000008152600401612217906131a1565b60405180910390fd5b612229816114b9565b15612269576040517f08c379a0000000000000000000000000000000000000000000000000000000008152600401612260906130a1565b60405180910390fd5b61227560008383611ddb565b6001600360008473ffffffffffffffffffffffffffffffffffffffff1673ffffffffffffffffffffffffffffffffffffffff16815260200190815260200160002060008282546122c591906133a3565b92505081905550816002600083815260200190815260200160002060006101000a81548173ffffffffffffffffffffffffffffffffffffffff021916908373ffffffffffffffffffffffffffffffffffffffff160217905550808273ffffffffffffffffffffffffffffffffffffffff16600073ffffffffffffffffffffffffffffffffffffffff167fddf252ad1be2c89b69c2b068fc378daa952ba7f163c4a11628f55a4df523b3ef60405160405180910390a45050565b604051806060016040528060008152602001600073ffffffffffffffffffffffffffffffffffffffff168152602001606081525090565b8280546123c190613514565b90600052602060002090601f0160209004810192826123e3576000855561242a565b82601f106123fc57805160ff191683800117855561242a565b8280016001018555821561242a579182015b8281111561242957825182559160200191906001019061240e565b5b509050612437919061243b565b5090565b5b8082111561245457600081600090555060010161243c565b5090565b600061246b612466846132ef565b6132be565b90508281526020810184848401111561248357600080fd5b61248e8482856134d2565b509392505050565b60006124a96124a48461331f565b6132be565b9050828152602081018484840111156124c157600080fd5b6124cc8482856134d2565b509392505050565b6000813590506124e38161368d565b92915050565b6000813590506124f8816136a4565b92915050565b60008135905061250d816136bb565b92915050565b600081519050612522816136bb565b92915050565b600082601f83011261253957600080fd5b8135612549848260208601612458565b91505092915050565b600082601f83011261256357600080fd5b8135612573848260208601612496565b91505092915050565b60008135905061258b816136d2565b92915050565b6000602082840312156125a357600080fd5b60006125b1848285016124d4565b91505092915050565b600080604083850312156125cd57600080fd5b60006125db858286016124d4565b92505060206125ec858286016124d4565b9150509250929050565b60008060006060848603121561260b57600080fd5b6000612619868287016124d4565b935050602061262a868287016124d4565b925050604061263b8682870161257c565b9150509250925092565b6000806000806080858703121561265b57600080fd5b6000612669878288016124d4565b945050602061267a878288016124d4565b935050604061268b8782880161257c565b925050606085013567ffffffffffffffff8111156126a857600080fd5b6126b487828801612528565b91505092959194509250565b600080604083850312156126d357600080fd5b60006126e1858286016124d4565b92505060206126f2858286016124e9565b9150509250929050565b6000806040838503121561270f57600080fd5b600061271d858286016124d4565b925050602061272e8582860161257c565b9150509250929050565b60006020828403121561274a57600080fd5b6000612758848285016124fe565b91505092915050565b60006020828403121561277357600080fd5b600061278184828501612513565b91505092915050565b60006020828403121561279c57600080fd5b600082013567ffffffffffffffff8111156127b657600080fd5b6127c284828501612552565b91505092915050565b6000602082840312156127dd57600080fd5b60006127eb8482850161257c565b91505092915050565b6127fd8161345e565b82525050565b61280c8161345e565b82525050565b61281b81613470565b82525050565b600061282c8261334f565b6128368185613365565b93506128468185602086016134e1565b61284f8161367c565b840191505092915050565b60006128658261335a565b61286f8185613376565b935061287f8185602086016134e1565b6128888161367c565b840191505092915050565b600061289e8261335a565b6128a88185613387565b93506128b88185602086016134e1565b6128c18161367c565b840191505092915050565b60006128d78261335a565b6128e18185613398565b93506128f18185602086016134e1565b80840191505092915050565b600061290a601083613387565b91507f496e76616c6964207472616e73666572000000000000000000000000000000006000830152602082019050919050565b600061294a603283613387565b91507f4552433732313a207472616e7366657220746f206e6f6e20455243373231526560008301527f63656976657220696d706c656d656e74657200000000000000000000000000006020830152604082019050919050565b60006129b0601c83613387565b91507f4552433732313a20746f6b656e20616c7265616479206d696e746564000000006000830152602082019050919050565b60006129f0602483613387565b91507f4552433732313a207472616e7366657220746f20746865207a65726f2061646460008301527f72657373000000000000000000000000000000000000000000000000000000006020830152604082019050919050565b6000612a56601983613387565b91507f4552433732313a20617070726f766520746f2063616c6c6572000000000000006000830152602082019050919050565b6000612a96602c83613387565b91507f4552433732313a206f70657261746f7220717565727920666f72206e6f6e657860008301527f697374656e7420746f6b656e00000000000000000000000000000000000000006020830152604082019050919050565b6000612afc603883613387565b91507f4552433732313a20617070726f76652063616c6c6572206973206e6f74206f7760008301527f6e6572206e6f7220617070726f76656420666f7220616c6c00000000000000006020830152604082019050919050565b6000612b62602a83613387565b91507f4552433732313a2062616c616e636520717565727920666f7220746865207a6560008301527f726f2061646472657373000000000000000000000000000000000000000000006020830152604082019050919050565b6000612bc8602983613387565b91507f4552433732313a206f776e657220717565727920666f72206e6f6e657869737460008301527f656e7420746f6b656e00000000000000000000000000000000000000000000006020830152604082019050919050565b6000612c2e602e83613387565b91507f45524337323155524953746f726167653a2055524920736574206f66206e6f6e60008301527f6578697374656e7420746f6b656e0000000000000000000000000000000000006020830152604082019050919050565b6000612c94602083613387565b91507f4552433732313a206d696e7420746f20746865207a65726f20616464726573736000830152602082019050919050565b6000612cd4603183613387565b91507f45524337323155524953746f726167653a2055524920717565727920666f722060008301527f6e6f6e6578697374656e7420746f6b656e0000000000000000000000000000006020830152604082019050919050565b6000612d3a602c83613387565b91507f4552433732313a20617070726f76656420717565727920666f72206e6f6e657860008301527f697374656e7420746f6b656e00000000000000000000000000000000000000006020830152604082019050919050565b6000612da0602983613387565b91507f4552433732313a207472616e73666572206f6620746f6b656e2074686174206960008301527f73206e6f74206f776e00000000000000000000000000000000000000000000006020830152604082019050919050565b6000612e06602f83613387565b91507f4552433732314d657461646174613a2055524920717565727920666f72206e6f60008301527f6e6578697374656e7420746f6b656e00000000000000000000000000000000006020830152604082019050919050565b6000612e6c602183613387565b91507f4552433732313a20617070726f76616c20746f2063757272656e74206f776e6560008301527f72000000000000000000000000000000000000000000000000000000000000006020830152604082019050919050565b6000612ed2603183613387565b91507f4552433732313a207472616e736665722063616c6c6572206973206e6f74206f60008301527f776e6572206e6f7220617070726f7665640000000000000000000000000000006020830152604082019050919050565b6000606083016000830151612f436000860182612f7b565b506020830151612f5660208601826127f4565b5060408301518482036040860152612f6e828261285a565b9150508091505092915050565b612f84816134c8565b82525050565b612f93816134c8565b82525050565b6000612fa582856128cc565b9150612fb182846128cc565b91508190509392505050565b6000602082019050612fd26000830184612803565b92915050565b6000608082019050612fed6000830187612803565b612ffa6020830186612803565b6130076040830185612f8a565b81810360608301526130198184612821565b905095945050505050565b60006020820190506130396000830184612812565b92915050565b600060208201905081810360008301526130598184612893565b905092915050565b6000602082019050818103600083015261307a816128fd565b9050919050565b6000602082019050818103600083015261309a8161293d565b9050919050565b600060208201905081810360008301526130ba816129a3565b9050919050565b600060208201905081810360008301526130da816129e3565b9050919050565b600060208201905081810360008301526130fa81612a49565b9050919050565b6000602082019050818103600083015261311a81612a89565b9050919050565b6000602082019050818103600083015261313a81612aef565b9050919050565b6000602082019050818103600083015261315a81612b55565b9050919050565b6000602082019050818103600083015261317a81612bbb565b9050919050565b6000602082019050818103600083015261319a81612c21565b9050919050565b600060208201905081810360008301526131ba81612c87565b9050919050565b600060208201905081810360008301526131da81612cc7565b9050919050565b600060208201905081810360008301526131fa81612d2d565b9050919050565b6000602082019050818103600083015261321a81612d93565b9050919050565b6000602082019050818103600083015261323a81612df9565b9050919050565b6000602082019050818103600083015261325a81612e5f565b9050919050565b6000602082019050818103600083015261327a81612ec5565b9050919050565b6000602082019050818103600083015261329b8184612f2b565b905092915050565b60006020820190506132b86000830184612f8a565b92915050565b6000604051905081810181811067ffffffffffffffff821117156132e5576132e461364d565b5b8060405250919050565b600067ffffffffffffffff82111561330a5761330961364d565b5b601f19601f8301169050602081019050919050565b600067ffffffffffffffff82111561333a5761333961364d565b5b601f19601f8301169050602081019050919050565b600081519050919050565b600081519050919050565b600082825260208201905092915050565b600082825260208201905092915050565b600082825260208201905092915050565b600081905092915050565b60006133ae826134c8565b91506133b9836134c8565b9250827fffffffffffffffffffffffffffffffffffffffffffffffffffffffffffffffff038211156133ee576133ed6135c0565b5b828201905092915050565b6000613404826134c8565b915061340f836134c8565b92508261341f5761341e6135ef565b5b828204905092915050565b6000613435826134c8565b9150613440836134c8565b925082821015613453576134526135c0565b5b828203905092915050565b6000613469826134a8565b9050919050565b60008115159050919050565b60007fffffffff0000000000000000000000000000000000000000000000000000000082169050919050565b600073ffffffffffffffffffffffffffffffffffffffff82169050919050565b6000819050919050565b82818337600083830152505050565b60005b838110156134ff5780820151818401526020810190506134e4565b8381111561350e576000848401525b50505050565b6000600282049050600182168061352c57607f821691505b602082108114156135405761353f61361e565b5b50919050565b6000613551826134c8565b91507fffffffffffffffffffffffffffffffffffffffffffffffffffffffffffffffff821415613584576135836135c0565b5b600182019050919050565b600061359a826134c8565b91506135a5836134c8565b9250826135b5576135b46135ef565b5b828206905092915050565b7f4e487b7100000000000000000000000000000000000000000000000000000000600052601160045260246000fd5b7f4e487b7100000000000000000000000000000000000000000000000000000000600052601260045260246000fd5b7f4e487b7100000000000000000000000000000000000000000000000000000000600052602260045260246000fd5b7f4e487b7100000000000000000000000000000000000000000000000000000000600052604160045260246000fd5b6000601f19601f8301169050919050565b6136968161345e565b81146136a157600080fd5b50565b6136ad81613470565b81146136b857600080fd5b50565b6136c48161347c565b81146136cf57600080fd5b50565b6136db816134c8565b81146136e657600080fd5b5056fea26469706673582212203196c1e7f9d9432c743045e2b2da2e7f3d7753885b1509d66ec406ec9eece92364736f6c63430008000033",
  "immutableReferences": {},
  "source": "// SPDX-License-Identifier: UNLICENSED\r\npragma solidity ^0.8.0;\r\n\r\nimport \"../node_modules/@openzeppelin/contracts/token/ERC721/ERC721.sol\";\r\nimport \"../node_modules/@openzeppelin/contracts/utils/Counters.sol\";\r\nimport \"../node_modules/@openzeppelin/contracts/token/ERC721/extensions/ERC721URIStorage.sol\";\r\n\r\n\r\ncontract MCT is ERC721URIStorage{\r\n    \r\n    event MCTInit();\r\n    event NewGen();\r\n    event SoldCard(uint _id);\r\n\r\n    //Events that are needed when calling a user's owned tokens\r\n    event CallYourTokens_Start();               //Initiate token call\r\n    event CallYourTokens(string _url);          //Token is called\r\n    event CallYourTokens_Finish();              //Finish token call, typo fixed, sry.\r\n\r\n   struct Card{\r\n        uint id;\r\n        address owner;\r\n        string url;\r\n    }\r\n    using Counters for Counters.Counter;\r\n    Counters.Counter private _tokenIds;\r\n    uint gatchaprice;\r\n    uint[] private _numOfCardsPerGen;\r\n    uint private  _currGen;//starts from 1, not 0\r\n    mapping (address => uint[]) private _ownedCards;\r\n    address public admin;\r\n    \r\n    \r\n    constructor() ERC721('MCT', 'Card') {\r\n        admin=msg.sender;\r\n        _currGen=0; //this will be incremented as soon as startNewGen() is called.\r\n        emit MCTInit();\r\n        gatchaprice=0; //Set to 0 for easy testing.\r\n    }\r\n\r\n    \r\n\r\n    function addCard(string memory _url) external {\r\n        require(msg.sender==admin);\r\n        _numOfCardsPerGen[_currGen-1]++;\r\n        uint id=_tokenIds.current();\r\n        _tokenIds.increment();\r\n        _mintCard(admin, id);\r\n        _setTokenURI(id, _url);\r\n    }\r\n    \r\n    function startNewGen() external{\r\n        _numOfCardsPerGen.push(0);\r\n        _currGen++;\r\n        emit NewGen();\r\n    }\r\n    \r\n    function callOwnedCards(address _address) external {\r\n        require(msg.sender==_address); //Maybe change to assert()?\r\n        emit CallYourTokens_Start();\r\n        uint[] memory ownedCards = _ownedCards[_address];\r\n        for(uint i=0; i<ownedCards.length; i++){\r\n            string memory url=tokenURI(ownedCards[i]);\r\n            emit CallYourTokens(url);\r\n        }\r\n        emit CallYourTokens_Finish();\r\n    }\r\n    \r\n    function searchCard(uint _id) external view returns (Card memory){\r\n        string memory url = tokenURI(_id);\r\n        address owner = ownerOf(_id);\r\n        Card memory card;\r\n        card.id=_id;\r\n        card.owner=owner;\r\n        card.url=url;\r\n        return card;\r\n    }\r\n    \r\n    function gatcha(address _to) external payable{\r\n        //Currently paying with Ether. This must tbe modified when integrated with Fungible Token.\r\n        require(_to==msg.sender && msg.value==gatchaprice);\r\n        uint id;\r\n        do{\r\n            id=getRandId();\r\n        } while(ownerOf(id)!=admin);\r\n        TransferCard(admin, _to, id);\r\n        emit SoldCard(id);\r\n    }\r\n    \r\n    \r\n    //function to transfer card. should not use transfer function of parent contracts.\r\n    function TransferCard(address _from, address _to, uint _id) public {\r\n        require(ownerOf(_id)==_from || _to==getApproved(_id), 'Invalid transfer');\r\n        if(_removeOwnership(ownerOf(_id), _id)){\r\n            _addOwnership(_to, _id);\r\n            super.safeTransferFrom(_from, _to, _id);\r\n        }\r\n    }\r\n    \r\n    function _mintCard(address _to, uint _id) private {\r\n        _safeMint(_to, _id);\r\n        \r\n    }\r\n    \r\n    function _addOwnership(address _owner, uint _id) private{\r\n        _ownedCards[_owner].push(_id);\r\n    }\r\n    \r\n    function _removeOwnership(address _owner, uint _id) private returns (bool) {\r\n        uint len = _ownedCards[_owner].length;\r\n        uint i=0;\r\n        while(i<len){\r\n            if(_ownedCards[_owner][i]==_id){\r\n                uint lastElement=_ownedCards[_owner][len];\r\n                _ownedCards[_owner][i]=lastElement;\r\n                _ownedCards[_owner].pop();\r\n                return true;\r\n            }\r\n        }\r\n        return false;\r\n    }\r\n    \r\n    \r\n    //Do we need to burn a card?\r\n    function _burnCard(uint _id) internal {\r\n        require(msg.sender==ownerOf(_id) || msg.sender==getApproved(_id));\r\n        address owner = ownerOf(_id);\r\n        _removeOwnership(owner, _id);\r\n        super._burn(_id);\r\n    }\r\n    \r\n    //Get Random Number from Backend, currently a dummy function.\r\n    function getRandId() public pure returns(uint) \r\n    {\r\n        return 0;\r\n    }\r\n    \r\n}\r\n",
  "sourcePath": "/mnt/c/Users/sungy/Desktop/wkspc/contracts/MCT.sol",
  "compiler": {
    "name": "solc",
    "version": "0.8.0+commit.c7dfd78e.Emscripten.clang"
  },
  "schemaVersion": "3.3.4",
  "updatedAt": "2021-04-16T14:54:13.638Z",
  "devdoc": {
    "kind": "dev",
    "methods": {
      "approve(address,uint256)": {
        "details": "See {IERC721-approve}."
      },
      "balanceOf(address)": {
        "details": "See {IERC721-balanceOf}."
      },
      "getApproved(uint256)": {
        "details": "See {IERC721-getApproved}."
      },
      "isApprovedForAll(address,address)": {
        "details": "See {IERC721-isApprovedForAll}."
      },
      "name()": {
        "details": "See {IERC721Metadata-name}."
      },
      "ownerOf(uint256)": {
        "details": "See {IERC721-ownerOf}."
      },
      "safeTransferFrom(address,address,uint256)": {
        "details": "See {IERC721-safeTransferFrom}."
      },
      "safeTransferFrom(address,address,uint256,bytes)": {
        "details": "See {IERC721-safeTransferFrom}."
      },
      "setApprovalForAll(address,bool)": {
        "details": "See {IERC721-setApprovalForAll}."
      },
      "supportsInterface(bytes4)": {
        "details": "See {IERC165-supportsInterface}."
      },
      "symbol()": {
        "details": "See {IERC721Metadata-symbol}."
      },
      "tokenURI(uint256)": {
        "details": "See {IERC721Metadata-tokenURI}."
      },
      "transferFrom(address,address,uint256)": {
        "details": "See {IERC721-transferFrom}."
      }
    },
    "version": 1
  },
  "userdoc": {
    "kind": "user",
    "methods": {},
    "version": 1
  }
}